:102000001197119C748011B511C074C011B511D114
:10201000112311F91134114711E2EC1134116B1134
:10202000E280EDC2B3C2B2D2B3D2B2C2B3C2B21175
:10203000F4E59022C0E075F06484F9E5F075F00AEB
:1020400084FAABF0D0E022748C11B5E9243011AAE7
:10205000748D11B5742E11AA748E11B5EA24301145
:10206000AA748F11B5EB243011AA2274CA11B5E9F4
:10207000243011AA74CB11B5EA243011AA74CC1102
:10208000B5742E11AA74CD11B5EB243011AA74CFFA
:1020900011B5742411AA22740111B522743811B536
:1020A000740E11B574061220B522D2B1D2B0F580EB
:1020B000C2B111EB22D2B1C2B0F580C2B111EB2294
:1020C0007400902129F893600711AAE804D5F0F272
:1020D000227400902136F893600711AAE804D5F025
:1020E000F2227EC87FFADFFEDEFA227E0A7FFADF66
:1020F000FEDEFA227F3CDFFE2270037C0022B46405
:102100000050037C6422B4780050037C7822B4969B
:0121100000CE
:1021110050037C9122B4B40050037CC822B4DC008B
:1021210050037CB4227CA5224B484F49204C554F8B
:102131004E473A2000474941205449454E3A200034
:00000001FF
